:020000040800F2
:10000000B00700205D020008291A00088D190008B9
:10001000251A00085D080008111B000800000000F8
:10002000000000000000000000000000311A00087D
:1000300091080008000000002D1A0008351A000879
:1000400077020008770200087702000877020008AC
:10005000770200087702000877020008770200089C
:10006000770200087702000877020008770200088C
:10007000770200087702000877020008770200087C
:100080007702000877020008770200088508000858
:10009000610800086D080008790800087702000868
:1000A000770200087702000877020008770200084C
:1000B000770200087702000877020008770200083C
:1000C000770200087702000877020008770200082C
:1000D000770200087702000877020008770200081C
:1000E000770200087702000877020008770200080C
:1000F00077020008770200087702000877020008FC
:1001000077020008770200087702000877020008EB
:1001100077020008770200087702000877020008DB
:1001200077020008770200087702000877020008CB
:1001300077020008770200087702000877020008BB
:1001400077020008770200087702000877020008AB
:10015000770200087702000877020008770200089B
:10016000770200087702000877020008770200088B
:1001700077020008770200087702000800000000FC
:10018000770200087702000877020008770200086B
:10019000770200087702000877020008770200085B
:1001A00000000000000000007702000800F002F8E4
:1001B00000F045F80AA090E8000C82448344AAF1BC
:1001C0000107DA4501D100F03AF8AFF2090EBAE8BA
:1001D0000F0013F0010F18BFFB1A43F0010318477B
:1001E0001429000034290000103A24BF78C878C1CF
:1001F000FAD8520724BF30C830C144BF04680C602D
:10020000704700000023002400250026103A28BF74
:1002100078C1FBD8520728BF30C148BF0B60704778
:100220001FB502F052FC9DE8030000F007FA00F051
:1002300025F91FBD10B5002000F036FA10BD00F002
:1002400075FA1146FFF7ECFF02F07CFA00F0ADFA08
:1002500003B4FFF7EFFF03BC00F022F90948804721
:1002600009480047FEE7FEE7FEE7FEE7FEE7FEE798
:10027000FEE7FEE7FEE7FEE704480549054A064BB0
:1002800070470000FD1A0008AD010008B001002011
:10029000B0070020B0030020B003002053EA020C96
:1002A00000F069802DE9F04B4FF00006002B1FBFD6
:1002B000B3FA83F503FA05F424FA05F65E4012BF9B
:1002C0001643B2FA82F502FA05F4C5F120051EBF05
:1002D00022FA05FC44EA0C04203556EA044C4FEAA5
:1002E000144418BF641C4FF000084FF000099042FE
:1002F00071EB030C39D3002919BFB1FA81F701FA68
:1003000007F6B0FA80F700FA07F6C7F120071EBF1C
:1003100020FA07FC46EA0C062037B6FBF4FCA7EBF4
:100320000507103F07F01F0BCBF120062CFA06F64D
:100330000CFA0BFB44BFB3460026202FA4BF5E4639
:100340004FF0000B5BEA060C08BF4FF0010B19EBF6
:100350000B0948EB0608ABFB027C06FB02CC0BFB4F
:1003600003CCC01B71EB0C01C1E70B4602464146B2
:100370004846BDE8F08B13B5084318BF4FF0FF3077
:100380000146AFF30080BDE81C40704710B5002067
:1003900000F0F9F8FFF74EFFBDE81040012000F033
:1003A0007FB80B460146184600F0D6B8431A28BF5E
:1003B0009A4240F2EF801044114410F0030F1EBF28
:1003C00011F8013D521E00F8013D10F0030F7FF4BB
:1003D000F6AF103AC0F00A8010B531E9185020E9A4
:1003E0001850103ABFF4F9AFBDE81040530724BFCE
:1003F00031E9081020E9081044BF51F8043D40F8E5
:10040000043D12F0030F08BF7047D20728BF31F830
:10041000023D48BF11F8012C28BF20F8023D48BF1B
:1004200000F8012C70474FF0000200B513469446C7
:100430009646203922BFA0E80C50A0E80C50B1F13C
:100440002001BFF4F7AF090728BFA0E80C5048BF50
:100450000CC05DF804EB890028BF40F8042B08BFEE
:10046000704748BF20F8022B11F0804F18BF00F8EA
:10047000012B7047704770477047000070B5064CFD
:100480007C44064D7D4404E02046016808448047D2
:10049000241DAC42F8D170BD9026000094260000C7
:1004A00001491820ABBEFEE72600020070B50646E3
:1004B00000F0A4F8056806F10B0020F00704B44230
:1004C0009CBF002070BD2B466A68BAB11068A0427C
:1004D00010D304F1080188423CBF5068586007D32C
:1004E0005168101941601168091B0160586014605F
:1004F000101D70BD13465268002AE7D121462846D8
:1005000000F088F80028DED170BD70B50446051FE4
:1005100000F074F80068002C14BF446870BD002C13
:1005200018BFAC423CBF20466468F8D301680A1883
:10053000AA4218BF456003D12A68054611440160EC
:1005400028684119A1421CBF6C6070BD6168696078
:1005500021680844286070BD2DE9F0410746154622
:100560000E461020FFF7A2FF04000AD06760C4E91E
:10057000026500F047F80168216004600020BDE8D2
:10058000F0810120FBE710B500F0B4F8BDE81040A1
:1005900000F0ABB810B5203AC0F00B80B1E81850AD
:1005A000A0E81850B1E81850A0E81850203ABFF45D
:1005B000F5AF5FEA027C24BFB1E81850A0E81850FC
:1005C00044BF18C918C0BDE810405FEA827C24BF50
:1005D00051F8043B40F8043B08BF7047D20728BFDE
:1005E00031F8023B48BF11F8012B28BF20F8023B2D
:1005F00048BF00F8012B7047704700000048704763
:10060000600000200048704790000020704770474D
:100610007047704738B504460A4600206946AFF374
:100620000080002808BF38BD02460099204600F02F
:10063000A2F8012038BD012000F0D9B8F8B5AFF319
:100640000080054600200C46102000BF0646A81971
:10065000A0420DD9324669460020AFF30080070062
:1006600008BF00F0C4F80098A04218BF0546C4199E
:10067000FFF7C4FF05600746F01D20F0070046198C
:10068000284600F00AF8B44208BFF8BDA21B314664
:100690003868BDE8F84000F06EB800210160C0E99C
:1006A00001107047102070472DE9F0410646FFF712
:1006B000A9FF8046454613E016B1E068B0420ED16E
:1006C00020682860D4E90101D8F8007088472046E6
:1006D000FFF71BFFD8F80000B842EBD100E0254639
:1006E0002C68002CE8D1BDE8F081002801D0FFF78C
:1006F000D7BE704710B5002102A000F05FF80120BE
:1007000010BD0000534947414252543A2041626EA5
:100710006F726D616C207465726D696E6174696F62
:100720006E00000000487047580000207546FFF733
:10073000F9FFAE4605006946534620F0070085469E
:1007400018B020B5FFF798FDBDE820404FF0000637
:100750004FF000074FF000084FF0000BAC46ACE83C
:10076000C009ACE8C009ACE8C009ACE8C00921F098
:1007700007018D467047034640688C46002818BF25
:1007800088423CBF03464068F8D318681844884242
:1007900007D00CF1030020F00700001D411A521A87
:1007A0000146081D0A60FFF7B0BE10B50446AFF35E
:1007B00000802046BDE81040FFF74ABD70B50546F1
:1007C0000C460A2000E06D1C00F018F835B12878BE
:1007D0000028F8D102E0641C00F010F814B1207871
:1007E0000028F8D1BDE870400A2000F007B810B525
:1007F00000F00CF8BDE81040FFF777BF08B5694678
:100800008DF800000320ABBE08BD000010B5012824
:1008100005D0002103A0FFF7D1FF012010BD09A1E1
:10082000F8E7000053494752544D454D3A204F7563
:1008300074206F662068656170206D656D6F7279D8
:10084000000000003A2048656170206D656D6F7290
:100850007920636F7272757074656400FEE7000042
:1008600040F28010C2F2000000F094B940F2801013
:10087000C2F2000000F08EB940F28010C2F2000017
:1008800000F088B940F28010C2F2000000F082B996
:1008900070470000EFF3108072B600BFFEE7000063
:1008A00090F82020013A012A08D8006800F11402CB
:1008B0000020136819431160704700BF00F1240243
:1008C00001204FF480211368194311607047000024
:1008D00010B590F820E0D0F800C0AEF1010EBEF1E6
:1008E000010FDCF808E011D81EF0E05F18D0CEF35D
:1008F000016EBEF1030F1DD100F1240101204FF460
:1009000000020B681A430A6010BD00BF00F1240109
:1009100001204FF480220B681A430A6010BD00BF0B
:1009200000F1240101204FF400120B681A430A6001
:1009300010BD00BF012000FA0EF01860886828B1D1
:100940004B68CC6844EAC303034303E00868CB6800
:1009500043EA40530CEB0E10C0F880310B69C0F82D
:100960008431097D012905D100F5C2710B6843F47A
:1009700080730B605168C0F88C11126800F5C0716B
:10098000C0F88821002001220B681A430A6010BDBC
:10099000B0B590F82020013A012A2FD846F2006025
:1009A000C4F20000026842F001020260026822F410
:1009B0007C520260D1F814E0CC694A6A0368012CC9
:1009C00043EA022202600EF01F024FF0010303FA15
:1009D00002F2C3696FEA020C23EA0203C36113D077
:1009E0002CBBC36803EA0C03C360CB688C8844EA61
:1009F000034300EBCE0423640B4611E0416A41F44B
:100A0000802141620120B0BDC3681343C3600B68FD
:100A10008C8844EA034300EBCE04236401F10C0309
:100A20008C681B8843EA044300EBCE04636443688C
:100A30008D6943EA0204D1F810E0096A002D08BF6D
:100A400003EA0C0444604369BEF1000F43EA020468
:100A500008BF03EA0C040129446102D1C1691143B2
:100A6000C161016821F0010101600020B0BD0000FA
:100A70007047000010B590F82040013C012C71D85F
:100A8000D0F800C0002977D0DCF81040A40777D058
:100A90000CEB011CDCF8B0410CF5D87E14F004041A
:100AA0009460DCF8B04119BFE4085460640D146030
:100AB000DEF80040002904F00204D460DCF8B44100
:100AC00004F00F041461DCF8B441C4F3072494610A
:100AD000DCF8B4414FEA14445461DCF8B8211A70D0
:100AE000026802EB0112D2F8B8214FEA12225A70C2
:100AF000026802EB0112D2F8B8214FEA12429A7052
:100B0000026802EB0112D2F8B8214FEA1262DA70E1
:100B1000026802EB0112D2F8BC211A71026802EBE2
:100B20000112D2F8BC214FEA12225A71026802EB7C
:100B30000112D2F8BC214FEA12429A71026802EB0C
:100B40000112D2F8BC214FEA1262DA71006814BFB8
:100B500000F1100100F10C01002020220B681A4363
:100B60000A6010BD00F1240101204FF480220B68BF
:100B70001A430A6010BD00BFDCF80C40A40787D1FF
:100B800000F1240101204FF400120B681A430A609F
:100B900010BD00002DE9F04F81B0044600684669A1
:100BA000D0F804908768D0F80CB0D0F810A0D0F836
:100BB0001880F10704D1002530071DD424E000BFC0
:100BC000F90710D00121BA07816009D4780700F134
:100BD000AF80380700F1B680204600F02DFA02E021
:100BE000204600F02BFA0025F80500F18780F80375
:100BF00000F1B180300707D51BF0100004D0206849
:100C000045F400751021C160700708D51BF008007D
:100C100005D020680821C160204600F0B9F9B0076E
:100C200006D52068C068800702D0204600F0B2F9DF
:100C3000700607D51AF0100004D0206845F48065CE
:100C400010210161B00608D51AF0080005D020680F
:100C500008210161204600F0BBF9F00606D52068A6
:100C60000069800702D0204600F0B4F9B00308D52F
:100C700019F0100005D0206810214160204600F0D6
:100C8000ABF9F00308D519F0080005D02068082159
:100C90004160204600F0DCF9300440F19B805FEABF
:100CA000497040F1948006F4807008EA10202843CF
:100CB0005FEA8871014648BF41F00201B20558BFA2
:100CC00001465FEA48700D4648BF45F004057005CF
:100CD00058BF0D46300540F17A8018F0700000F0E2
:100CE00076801038000905286CD8DFE800F0035939
:100CF0005D61656945F0080564E000BF20684FF458
:100D00008071BA0581600BD4780515D438051DD4DF
:100D1000204600F095F9F8037FF56CAF1BE000BFAB
:100D2000204600F08FF9F8037FF564AF13E000BFB1
:100D30004FF4006558E700BF05F50055F8037FF54F
:100D400059AF08E04FF480554EE700BF05F58045E8
:100D5000F8037FF54FAF20684FF48031BA0381600C
:100D60000AD4780310D4380314D4204600F06CF968
:100D700030073FF541AF47E7204600F067F93007FD
:100D80003FF53AAF40E700BF05F5004530073FF5B6
:100D900033AF39E705F5803530073FF52DAF33E741
:100DA00045F010050EE000BF45F020050AE000BF49
:100DB00045F0400506E000BF45F0800502E000BFB9
:100DC00045F480752068816921F070018161206897
:100DD0000421416055B1606A40EA05012046616224
:100DE00001B0BDE8F04FFFF743BE00BF01B0BDE862
:100DF000F08F0000B0B5C8B1044690F8200010B9DB
:100E0000204600F071F82068016841F0010101609E
:100E100000F008FA054600BF20684168C90707D1FD
:100E200000F000FA401B0B28F6D312E00120B0BD01
:100E3000016821F00201016000F0F4F9054600BFED
:100E40002068416889070DD500F0ECF9401B0B289C
:100E5000F6D3606A052140F400306062012084F816
:100E60002010B0BD217E0268012922F0800208BF57
:100E700080320260617E0268012922F0400208BFD0
:100E800040320260A17E0268012922F0200208BFE0
:100E900020320260E17E0268012922F0100218BFB0
:100EA00010320260217F0268012922F0080208BF87
:100EB00008320260617F0268012922F0040208BF43
:100EC00004320260D4E901C2D4E9033561691A43EE
:100ED0002A431143ACF101021143C16100200121F9
:100EE000606284F82010B0BD80B586B0016846F21B
:100EF0000040C4F20000814202D006B080BD00BFB5
:100F0000002143F630020191C4F20202136900F598
:100F1000D43043F000731361136903F0007301933D
:100F2000019B0191136843F00803136012680223C8
:100F300002F008020192019ACDE90231092103224F
:100F4000059101A90192049200F098F81320002164
:100F5000002200F0EBF9132000F0D4F91420002156
:100F6000002200F0E3F9142000F0CCF91520002154
:100F7000002200F0DBF9152000F0C4F91620002152
:100F8000002200F0D3F9162000F0BCF906B080BDB5
:100F90007047000040F28011C2F20001884218BF81
:100FA0007047B0B540F2B805C2F200052C1D40F202
:100FB000801005F11402C2F2000000212346FFF761
:100FC00059FD05F130002146BDE8B04000F058BEA3
:100FD000704700007047000070470000B0B504463D
:100FE00090F8200001281DD1022084F820002068FC
:100FF000016821F00101016000F014F9054600BF0D
:1010000020684068C00713D000F00CF9401B0B2883
:10101000F6D3606A40F400306062052084F8200056
:101020000120B0BD606A40F4002060620120B0BDC4
:1010300000206062B0BD00007047000070470000F3
:1010400070470000704700007047000070470000C4
:1010500070470000B0B5044600F0E4F8054640F2E1
:101060003000C2F200000078611C18BF044400BFC9
:1010700000F0D8F8401BA042FAD3B0BD2DE9F04FE4
:1010800082B000F13E4242F2004502F1FF77C4F225
:1010900002050A2243F6004E4FEAB726A84208BFCF
:1010A0000922C4F2010E092E38BF4FEAB7220125EA
:1010B000002600274FF00008009208E008F1010820
:1010C0000437B8F1100F06F1020600F0A7800C6893
:1010D00005FA08F914EA090FF0D0D1F804B0032298
:1010E0000BF0030CACF10104B240012C6FEA020AD0
:1010F00010D88268CC6802EA0A02B44022438260B7
:101100004268CBF3001422EA090204FA08F42243ED
:10111000426005E0BCF1030F02D14FF0030C20E068
:10112000C2688C6802EA0A02B4402243BCF1020F92
:10113000C26016D16FF0030202EA58020244D2F8EC
:1011400020C007F01C050F230C69AB402CEA0303F9
:1011500004FA05F52B431362D1F804B001250BF016
:10116000030C02680CFA06F302EA0A021A431BF4A3
:10117000403F0260A2D0002243F644030192C4F231
:1011800002031A684FF6084C42F480421A601A684B
:10119000CFF6FF7C02F480420192019A28F003020C
:1011A000724452F80C3007F00C050F24AC40A343F6
:1011B000009C04FA05F52B4342F80C30DEF80820B9
:1011C0004B6842EA090543F60C4CDC0258BF22EAA0
:1011D0000905CEF80850C4F2010CDCF800209C028E
:1011E00042EA090558BF22EA0905CCF80050DEF8AA
:1011F00004209C0342EA090558BF22EA0905CEF8FB
:101200000450DEF80020DB0342EA090558BF22EA59
:101210000905CEF80050012550E700BF02B0BDE837
:10122000F08F000040F2A810C2F200000068704782
:1012300040F2300040F2A811C2F20000C2F20001F8
:1012400000780A68104408607047000080B543F6D3
:101250000040C4F20200016841F4007101600168BD
:1012600041F480610160016841F4807101600320F4
:1012700000F088F80F2000F005F800F027F80020B3
:1012800080BD000070B540F23006C2F2000640F2A8
:1012900038013278C2F200014FF47A730968B3FB67
:1012A000F2F20446B1FBF2F1084600F059FB0F2CB4
:1012B0004FF0010508D838B94FF0FF302146002221
:1012C000002500F033F87460284670BD82B000201D
:1012D00043F640010190C4F202014A6842F48042A0
:1012E0004A604A6802F480420192019A00900868BC
:1012F00040F080500860086800F08050009000982E
:1013000002B07047002848BF7047C1B200F01F000C
:10131000012202FA00F04EF20012CEF2000242EA7E
:10132000D10121F0030108607047000010B54EF6AE
:101330000C5CCEF2000CDCF80030C3F3022E8EF011
:101340000704042C28BF0424BEF103034FF0FF3E22
:101350000EFA04F438BF0023A14399400EFA03F3B8
:101360009A43114300F00F0200F160430901043A6F
:1013700003F564436244002848BF02F10C0319706E
:1013800010BD00004EF60C51CEF200010A684FF677
:10139000FF031A4060F30A2242F0806040F0FD70C3
:1013A0000860704770B582B00020019043F640009D
:1013B000C4F202000168402641F0805101600068DB
:1013C000C4F20E2600F080500190019847F2040507
:1013D0000120C4F200053060FFF724FF044600BF7F
:1013E0002868C00306D4FFF71DFF001BB0F57A7F05
:1013F000F6D90EE001207060FFF714FF044600BF2D
:101400002868800308D4FFF70DFF001BB0F57A7F32
:10141000F6D9032002B070BD002002B070BD0000FC
:101420002DE9F041002800F08B8043F60808C4F253
:1014300002080446D8F8F8030D4600F00F00884271
:1014400007D288F8F853D8F8F80300F00F00A84244
:1014500076D12068810717D5410705D5D8F8001047
:1014600041F4E051C8F80010010705D5D8F8001084
:1014700041F46041C8F80010D8F80010A26821F0CB
:10148000F0011143C8F80010C0073FD1D8F8F803A5
:1014900000F00F00A84207D988F8F853D8F8F803ED
:1014A00000F00F00A8424BD12068410707D5D8F8BB
:1014B0000010E26821F4E0511143C8F80010000761
:1014C00008D5D8F80000216920F4604040EAC10046
:1014D000C8F8000000F054F8D8F8001042F6E422F2
:1014E000C1F30311C0F60002515C40F2380220FA49
:1014F00001F140F23400C2F200000068C2F20002C2
:101500001160FFF7BFFE0020BDE8F0816068811E1A
:10151000022907D258F8081C89015CBF0120BDE8E8
:10152000F08111E0012807D158F8081C89035CBF3D
:101530000120BDE8F08107E058F8081C890703D4B2
:101540000120BDE8F08100BFD8F8001021F00301B0
:101550000843C8F80000FFF765FE064641F28837E9
:10156000D8F80000616800F00C00B0EB810F8DD05E
:10157000FFF758FE801BB842F2D90320BDE8F08186
:1015800010B543F60404C4F20204606800F00C00D5
:1015900008280BD0042819BF42F20040C0F2F40022
:1015A00041F60030C0F2B70010BD00BF20682168CE
:1015B0002368490241F60031C0F2B70100F03F0252
:1015C000C3F388105CBF42F20041C0F2F401A1FBFA
:1015D00000010023FEF762FE21680222C1F30141EF
:1015E00002EB4101B0FBF1F010BD00002DE9F0412C
:1015F00082B0002868D00446007843F60006C00791
:10160000C4F202060BD0B06800F00C00042840F0D1
:101610009F803068800302D56068002854D020780D
:1016200080071AD5B06810F00C0F09D0B06800F030
:101630000C00082840F0A6807068400200F1A280EB
:101640003068800702D5E06801283DD13068216903
:1016500020F0F80040EAC10030602078000737D45D
:10166000207840074CD4A56955B3B06800F00C0051
:10167000082840F0BB80012D26D07068E16900F495
:1016800080028A4220D1216A00F03F028A421BD1A7
:1016900047F6C071626A0140B1EB821F14D1A16AA2
:1016A0004FF6FF73C903994300F44032A1F580312E
:1016B0008A4209D1E16A00F07060B0EB016F03D19A
:1016C000002002B0BDE8F081012002B0BDE8F08149
:1016D0006069002840F20000C4F2472076D0012162
:1016E000C0F8801EFFF79EFD054600BF706F8007A3
:1016F000B6D4FFF797FD401B0228F7D9DDE000BF05
:10170000306C10F080580AD100200190306C40F00D
:1017100080503064306C00F080500190019847F2A6
:101720000007C4F200073868C00541D4386840F4A7
:1017300080703860FFF776FD054600BF3868C00549
:1017400036D4FFF76FFD401B0228F7D9B5E000BF84
:10175000B06800F00C00082803D1706840023FF523
:1017600058AF6068B0F5803F07D0B0F5A02F40F0CB
:101770008D80306840F480203060306840F48030E4
:1017800030608DE0E068002852D00020C4F247208D
:1017900001210160FFF746FD054600BF3068800764
:1017A0003FF554AFFFF73EFD401B0228F6D984E019
:1017B000A068012805D005284ED1306F40F0040004
:1017C0003067306F40F0010030674FE00021C0F813
:1017D000801EFFF727FD0546706F80077FF540AF3D
:1017E000FFF720FD401B0228F6D966E00027C4F26F
:1017F000472700203866FFF715FD022D05460BD15F
:10180000306880015ED5FFF70DFD401B02284FF0C8
:101810000300F5D955E700BF306880017FF550AF70
:10182000FFF700FD401B02284FF00300F4D948E702
:101830000020C4F2472000210160FFF7F3FC0546B9
:10184000306880077FF509AFFFF7ECFC401B0228EA
:101850004FF00300F4D934E7316F002821F0010183
:101860003167316F21F0040131674DD0FFF7DAFCA9
:10187000054641F2883700BF306F800756D4FFF726
:10188000D1FC401BB842F7D917E000BF31680028EF
:1018900021F480313160316821F4802131604FD0F2
:1018A000FFF7C0FC054600BF306880033FF5B7AEC8
:1018B000FFF7B8FC401B6428F6D9032002B0BDE84E
:1018C000F08100BF04F11C052FCD084340EA8210CF
:1018D000D9034FF6FF729143A1F5803140EA0560CC
:1018E0000843706001203866FFF79CFC044600BF87
:1018F000306880013FF5E4AEFFF794FC001B02283E
:101900004FF00300F4D9DCE6FFF78CFC054641F20A
:10191000883700BF306F800708D5FFF783FC401B76
:10192000B8424FF00300F5D9CBE600BFB8F1000F85
:101930007FF499AE306C20F08050306493E600BFA5
:10194000FFF770FC054600BF306880037FF567AE87
:10195000FFF768FC401B64284FF00300F4D9B0E6A1
:10196000411E0020B0EB116F1CBF012070474EF2EA
:101970001002CEF2000251604EF62351CEF2000169
:10198000F0230B700721906011607047FEE70000A4
:1019900080B540F2801046F20041C2F20000C4F26D
:1019A00000010322002380E80E0000F10C014FF437
:1019B000302C4FF4801E81E808504FF48071018371
:1019C000C0F81A30FFF716FA002808BF80BDBDE83E
:1019D0008040FEF75FBF000083B0002043F6300177
:1019E0000290C4F202010A6842F001020A600A6829
:1019F00002F001020292029A01900A6842F0080283
:101A00000A600A6802F008020192019A00900868D0
:101A100040F080000860086800F0800000900098A6
:101A200003B07047FEE70000FEE7000070470000CB
:101A300070470000FFF7FCBB80B592B0002043F672
:101A40004001CDE90A00CDE908000590CDE9030089
:101A5000CDE901000090C4F202010A6842F0805210
:101A60000A60096801F0805100910099009047F2E6
:101A70000000C4F20000016841F4404101600068C8
:101A80004FF4800100F4404000900098012006903F
:101A90004FF480300D910621079002200E91B42161
:101AA0000C90CDE90F100420119006A8FFF79EFDC1
:101AB00020B1EFF3108072B6FEE700BFFFF772FCB3
:101AC00020B1EFF3108072B6FEE700BF0F20019047
:101AD00002200290002003904FF4A05004904FF495
:101AE0008050059001A80521FFF79AFC20B1EFF383
:101AF000108072B6FEE700BF12B080BD4EF688506F
:101B0000CEF20000016841F47001016070470000EE
:101B1000FEE70000B0B540F21C1440F20005C2F22E
:101B20000004C2F200052046294600F03DFA04F107
:101B3000200005F1180100F037FA40342046322128
:101B400000F0CCF941F6F16040F20002C0F600006E
:101B5000C0F600022146BDE8B040FEF722BC0000FE
:101B600040F2B800C2F20000303000F039B9000095
:101B7000B0B58AB06C4620462821FEF754FC40F2EE
:101B800080150120C2F20005CDE907002846214654
:101B9000FEF7FEFE2846FFF721FA28460221FEF74F
:101BA0007FFE0AB0B0BD0000B0B52DED028B10EE87
:101BB000100AB0EE408A00F0EDFE9FED210B0446C6
:101BC00053EC102B0D4600F01EFF98BB9FED1E0B33
:101BD000204653EC102B294600F02AFF50BB4CF254
:101BE0000000FBEE040AB3EE041ACFF6FF70B0EE6D
:101BF000480A4FF4804100F02BF840F2B803C2F2DB
:101C000000031A46050A98731874987402F80C0FAA
:101C100040F2801040F23C015D73DD735D74C2F2EE
:101C20000000C2F20001DD74BDEC028BBDE8B040E3
:101C3000FEF74EBEBDEC028BB0BD00BF00BF00BFC3
:101C40009A9999999999C93F9A9999999999C9BFD6
:101C5000091A02EE101AB8EEC22A30EE600A20EE1F
:101C6000020A31EE601A80EE010A01EE100AB8EEA7
:101C7000C11A30EE010ABDEEC00A10EE100A70471C
:101C800070B52DED048B0A889FED4D1A52BA00EE07
:101C9000102AB8EEC00A9FED4B2A20EE010A80EE12
:101CA000020A90ED042A9FED484A9FED485A90EDB4
:101CB000003A044640F21C15C2F2000505F1400648
:101CC00030EE422A32EE044AB4EE452AF1EE10FA22
:101CD000C8BFB0EE442A9FED3E4A32EE011AB4EE80
:101CE000442AF1EE10FAB8BFB0EE412A82EE031A90
:101CF00090ED014A80ED030A80ED040A80ED052A8B
:101D00009FED342A34EE010A80ED021A80ED010ABB
:101D10008878CA78000200B2104400EB400040000E
:101D200000EE100AB8EEC01A81EE030A84ED061A1E
:101D30009FED293A84ED070A08794A79000200B23A
:101D4000104400F5804001EE100AB8EEC11A21EEF1
:101D5000021A21EE031ABBEE042A31EE021A84EDB8
:101D6000081A887901EE100AB8EE411A304684ED5F
:101D7000091A00F041F89FED198AD4ED010A94ED9B
:101D80000A0A05F12000B0EE481A00F0B3F8304618
:101D9000B0EE409A84ED0B0A00F08EF8F0EE400AA7
:101DA0002846B0EE490AB0EE481A00F0A3F884EDD8
:101DB0000C0ABDEC048BBDE87040FFF7F5BE00BF18
:101DC0000000B44300F8FF450000B4C300003443F2
:101DD000000034C300002042000000386F12833A34
:101DE00010B50021C4F21021044640F8041B302134
:101DF000FEF719FB204610BD10B52DED028B0446F1
:101E0000D0F804E04069E36922699842B0EE408A64
:101E100025D16FF0030303EA92035EF803C002F0DA
:101E20000F030CEB830393ED000A94ED061A0132C5
:101E300031EE400A0138202A84ED060A22616061F1
:101E40000DD3DEF80000402100F066FC6168D4E9A3
:101E5000042001F1040E103AC4F804E02261A368E2
:101E60000244A3EB0E01B3EB0E034FF0FF3C18BF8F
:101E70000CEB8103934207D1204600F053FAD4E9DA
:101E80000410D4F804E00A186FF0030101EA92018B
:101E90005EF8011002F00F0201EB820181ED008A71
:101EA00094ED060A013030EE080A606184ED060AFE
:101EB000BDEC028B10BD0000416990ED060A01EEF9
:101EC000101AB8EE411A80EE010A9FED031A00299C
:101ED00008BFB0EE410A7047000000000022C0E9D0
:101EE0000022C0E90222C0E90422C0E906217047AD
:101EF00000F0CEBB30EE602A90ED070A90ED054A67
:101F000032EE000AB1EE443AB4EE430AF1EE10FAB2
:101F100080ED070A06DBB4EE440AF1EE10FAB0EEEB
:101F2000443A03DDB0EE430A80ED073A90ED063AFD
:101F300090ED024A32EE433A24EE033A83EE011A60
:101F400090ED004A90ED043A90ED016A22EE045AB9
:101F5000B1EE434AB4EE445AF1EE10FA26EE000A0E
:101F600008DBB4EE435AB0EE454AF1EE10FAC8BFB2
:101F7000B0EE434A90ED033A30EE040A31EE001A17
:101F8000B1EE430AB4EE401AF1EE10FA08DBB4EEFB
:101F9000431AB0EE410AF1EE10FAC8BFB0EE430AA0
:101FA00080ED062A704700000A6802604A684260B5
:101FB0008A688260CA68C2600A69026149694161CF
:101FC0000021C0E9061170472DE9F047044600687A
:101FD00066688946864201D0B24679E0D4E902506B
:101FE000854219D2401B012101EBA00000EBD0700B
:101FF0004FEA6008B54205EB880A07D0AA1BAAEB96
:10200000020A50463146FEF7D1F9A66806EB880071
:10201000C4E901A05CE000BFB0EB06084FEA680726
:1020200008BF0127B7F1804F5CD2B80007F1030A5F
:1020300000F074FB2AF0030100EB010A00EB870CAF
:10204000B542524638D0A91B21F00302A1F1040E7B
:10205000012101EB9E01524411F003075546314620
:1020600015D0314651F8043B5546012F45F8043B45
:102070000DD07168022F45F8041B03D106F1080149
:1020800005E000BFB16845F8041B06F10C01BEF184
:102090000C0F11D3A5F11003103900BF51F8107FB8
:1020A00043F8107F4F6803F110055F608F68954219
:1020B0009F60CF68DF60F1D1C4E9000AA260C4F874
:1020C0000CC02EB13046414600F026FBD4F804A0E7
:1020D000D9F800004AF8040C606804386060BDE874
:1020E000F08700BF00F014FB2DE9F04F81B00446EB
:1020F000D0E902608A4686426FD1D4E900974F4505
:1021000016D9A7EB0900012101EBA00000EBD0706C
:102110004508A7EB8500F21B3946FEF747F96068D2
:10212000A6EB8506A0EB8500A660606055E000BFC9
:10213000B6EB09084FEA680508BF0125B5F1804FE5
:102140005ED2A80000F0EAFA25F00301014400EB9A
:10215000850CBE420B4635D0F21B22F00303A2F1E0
:10216000040E012202EB9E0212F003050B4413D071
:102170003E4656F804BB0A46012D42F804BB0DD07A
:102180007E68022D42F8046B30D107F10806BEF1DB
:102190000C0F06D216E000BF0A463E46BEF10C0FF9
:1021A00010D3103AA6F1100757F8106F42F8106FCD
:1021B0007E6802F110055660BE689D429660FE681A
:1021C000D660F1D1B9F1000F1E4684E80B1004D09F
:1021D0004846414600F0A0FAA668DAF800003060F0
:1021E000A0680430A06001B0BDE8F08FBD6807F1C1
:1021F0000C0642F8045BBEF10C0FD2D2E2E700BF3E
:1022000000F086FA2DE9F0470446006866688946C2
:10221000864201D0B24679E0D4E90250854219D213
:10222000401B012101EBA00000EBD0704FEA6008D9
:10223000B54205EB880A07D0AA1BAAEB020A504652
:102240003146FEF7B3F8A66806EB8800C4E901A0A2
:102250005CE000BFB0EB06084FEA680708BF012743
:10226000B7F1804F5CD2B80007F1030A00F056FACC
:102270002AF0030100EB010A00EB870CB54252463D
:1022800038D0A91B21F00302A1F1040E012101EBBA
:102290009E01524411F003075546314615D0314690
:1022A00051F8043B5546012F45F8043B0DD07168A9
:1022B000022F45F8041B03D106F1080105E000BF19
:1022C000B16845F8041B06F10C01BEF10C0F11D3E7
:1022D000A5F11003103900BF51F8107F43F8107FAB
:1022E0004F6803F110055F608F6895429F60CF686B
:1022F000DF60F1D1C4E9000AA260C4F80CC02EB1BD
:102300003046414600F008FAD4F804A0D9F800009D
:102310004AF8040C606804386060BDE8F08700BFCC
:1023200000F0F6F92DE9F04F87B004460069102857
:1023300026D3D4E901B610382061E0685F4657F82B
:1023400004AB8642676040F06A81D4F800904F4544
:1023500060D9A7EB0900012101EBA00000EBD070D0
:102360004508A7EB8500F21B3946FEF71FF86068A9
:10237000A6EB8506A0EB8500A66060604FE100BF7C
:10238000A568D4E90016204650F80C2FA5EB0609E5
:102390004FEAA907531AB7EBA30F0DD24020AA4268
:1023A00066D000F0BBF9029002A92046FFF79CFE20
:1023B00007B0BDE8F08F00BF4FEA63088A4208BF4C
:1023C0004FF00108B8F1804F069080F05F814FEA2E
:1023D000880000F0A3F98246029000EB870B00EB27
:1023E0008800019005904020CDF80CB000F096F9DF
:1023F000474540F08980B9F1010F65DB791C01EB9D
:10240000D1726FF0020101EA4201ABEB010BCDF892
:102410000CB079E0B6EB09084FEA680508BF012562
:10242000B5F1804F80F03281A80000F077F925F0F7
:102430000301421800EB850CBE42134600F0E48015
:10244000F11B21F003030E1F012101EB9601134440
:1024500011F00305114600F0C580DBF80470114649
:10246000012D41F8047B40F083800BF10807B9E0AF
:1024700000F054F9029002A92046FFF7A5FDD4E927
:1024800001B6E0685F4657F804AB8642676040F0EB
:10249000C680D4F800904F4574D9A7EB09000121FC
:1024A00001EBA00000EBD0704508A7EB8500F21B04
:1024B0003946FDF77BFF6068A6EB8506A0EB85003B
:1024C000A6606060ABE000BF4FEA6907B5420090CC
:1024D00008BF0127B7F1804F80F0D880B80000F026
:1024E0001DF9804627F0030008EB000B08EB87007E
:1024F00001A981E8010905905046494600F00CF910
:10250000D4E901650098C246594641F8040BB5422A
:1025100004910FD002AE00BF043D30462946FFF7BC
:1025200071FE60688542F7D1DDE902ABDDE9041395
:10253000A66801E0019B35462068E2680DF1080CB1
:10254000AE428CE86100C4E900ABC4E90213059215
:1025500005D0A91B033121F0030131440491002867
:102560003FF426AF111A00F0D7F807B0BDE8F08F9E
:10257000DBF80870022D41F8047B2DD10BF10C071C
:1025800030E000BFB6EB09084FEA680508BF012537
:10259000B5F1804F7AD2A80000F0C0F825F0030111
:1025A000421800EB850CBE42134663D0F11B21F0AC
:1025B00003030E1F012101EB9601134411F00305E3
:1025C000114645D0DBF804701146012D41F8047B1B
:1025D0002ED10BF108073BE0DBF80C7041F8047BCF
:1025E0000BF110070C2E0FD31039103F57F8106F56
:1025F00041F8106F7E6801F110054E60BE689D4283
:102600008E60FE68CE60F1D1B9F1000F1E4684E8FD
:102610000D1004D04846414600F07EF8A668C6F882
:1026200000A0A0680430A06007B0BDE8F08F00BF34
:10263000DBF80870022D41F8047B03D10BF10C0785
:1026400006E000BFDBF80C7041F8047B0BF11007CB
:102650000C2E0FD31039103F57F8106F41F8106F40
:102660007E6801F110054E60BE689D428E60FE6876
:10267000CE60F1D1B9F1000F1E4684E80D10CED026
:102680004846414600F048F8A668C8E700F040F820
:1026900070B5D0E901560446701B0021092861611C
:1026A0000BD300BF2868402100F036F8D4E90106BA
:1026B000051D701B08286560F4D88008012803D028
:1026C000022803D1102000E008202061B54210D07C
:1026D00055F8040B402100F01FF8B542F8D1D4E9B9
:1026E0000110884205D0091A033121F00301084482
:1026F000A060206818B1E168091A00F00DF82046C2
:1027000070BD40F27C10C2F200000068704700000B
:10271000FDF73CFEFDF7F9BEFFF7FCBF10B5044620
:10272000002808BF012400BF2046FDF7BFFE002897
:1027300018BF10BDFFF7E5FF08B18047F4E70020A0
:1027400010BD0000FEF782FDFFF776F9FFF744F9B0
:10275000FFF71EF900F002F8FEE70000FFF708FAA5
:102760004FF47A70FEF776FCFAE7491058BFC1F1D2
:1027700040415B1058BFC3F140438B42EFF30080F0
:102780007047000051EA030C17D41CF5801F58BF96
:10279000BCF5801F00F10680994218BF704708BF42
:1027A0009042704707D711F5801F58BF13F5801F5F
:1027B00019D499427047894270471CF5801F08D58B
:1027C000BCF5801FF7D58B4218BF704708BF824207
:1027D00070474FF4001C1CEB410F38BF1CEB430F3C
:1027E00001D28B42704770B500F080F89224490006
:1027F0004FF000514FF08053FFF7B7BF51EA030C81
:1028000017D41CF5801F58BFBCF5801F00F106804F
:10281000994218BF704708BF9042704707D711F51B
:10282000801F58BF13F5801F19D499427047894201
:1028300070471CF5801F08D5BCF5801FF7D58B426B
:1028400018BF704708BF824270474FF4001C1CEB52
:10285000410F38BF1CEB430F01D28B42704770B55C
:1028600000F044F8922449004FF080514FF000539B
:10287000FFF77BBF51EA030C17D41CF5801F58BF2C
:10288000BCF5801F00F10680994218BF704708BF51
:102890009042704707D711F5801F58BF13F5801F6E
:1028A00019D499427047894270471CF5801F08D59A
:1028B000BCF5801FF7D58B4218BF704708BF824216
:1028C00070474FF4001C1CEB410F38BF1CEB430F4B
:1028D00001D28B42704770B500F008F8922449008D
:1028E0004FF000514FF08053FFF73FBF0EF1020E43
:1028F0002EF0030E5EF8046B364205D4012A43EB3A
:10290000030515F5001F12D8012841EB010C1CF539
:10291000001F0CD80ED14FEAD17C0CEB4C0C0CF103
:10292000020C15F5001F08BF4CEBD37C04E04FF000
:10293000080C01E04FEAD37C0CEB4C0526FA05F6B7
:1029400006F00706B6F1040C06D20EEB860CBDE8C5
:1029500070404CF0010C6047DFE80CF0090B0202FC
:102960004FF00041A1F500214FF0000070BD194665
:102970001046012851EB010418BFD4F5001484BFA0
:10298000002001F0004170BD0808A0F500114FEAD9
:102990003101704743004FEAD30C4FEA3C0C4340EF
:1029A0001FBF40070CF1605113F0FE4F70471CF041
:1029B000006F03D10CF00041002070470CF0004381
:1029C00043EA507040EACC0010B500F038F800BF80
:1029D000000000924FEA0001FFF7D6BF4FF0004120
:1029E000A1F500214FF00000704710B5FFF7CAFEB7
:1029F0000CBF0120002010BD10B5FFF7C3FE14BFAF
:102A00000120002010BD10B5FFF7F8FE8CBF01209B
:102A1000002010BD10B5FFF7F1FE2CBF01200020F3
:102A200010BD10B5FFF726FF94BF0120002010BD98
:102A300010B5FFF71FFF34BF0120002010BD0EF1BD
:102A4000020E2EF0030E5EF8044B244204D44FEA2B
:102A50004102B2F17F4F11D84FEA4003B3F17F4FEB
:102A60000CD80ED14FEAD07C0CEB4C0C0CF1020CC4
:102A7000B2F17F4F08BF4CEBD17C04E04FF0080C63
:102A800001E04FEAD17C0CEB4C0324FA03F404F090
:102A90000704B4F1040C06D20EEB840CBDE8104020
:102AA0004CF0010C6047DFE80CF0070802024FF021
:102AB0000040A0F5800010BD0846420018BFD2F1CA
:102AC000807288BF00F0004010BDF1EE100A4FF692
:102AD000FF71C0F2C03120EA010040F04070E1EE29
:102AE000100A70470000000000000000010203040B
:102AF00006070809202B00080000002058000000ED
:102B0000E8010008782B0008580000205807000052
:102B1000040200084DF0FFFFFDEFFFFF0000000082
:102B200052499D390000000000000000CDCCCC3D92
:102B3000CDCCCC3D00007A440000B4436F12833A00
:102B40000000C0400050C3470050C3470000FA4394
:102B500001000000100000000024F400000200004A
:102B6000000200000000000000000000080000005B
:082B700000000000000000005D
:04000005080001AD41
:00000001FF
