:020000040800F2
:10000000C00600204D0200081515000879140008EC
:100010001115000845040008FD1500080000000047
:100020000000000000000000000000001D15000896
:1000300079040008000000001915000821150008C7
:1000400067020008670200086702000867020008EC
:1000500067020008670200086702000867020008DC
:1000600067020008670200086702000867020008CC
:1000700067020008670200086702000867020008BC
:100080006702000867020008670200086D040008A4
:1000900049040008550400086104000867020008CC
:1000A000670200086702000867020008670200088C
:1000B000670200086702000867020008670200087C
:1000C000670200086702000867020008670200086C
:1000D000670200086702000867020008670200085C
:1000E000670200086702000867020008670200084C
:1000F000670200086702000867020008670200083C
:10010000670200086702000867020008670200082B
:10011000670200086702000867020008670200081B
:10012000670200086702000867020008670200080B
:1001300067020008670200086702000867020008FB
:1001400067020008670200086702000867020008EB
:1001500067020008670200086702000867020008DB
:1001600067020008670200086702000867020008CB
:10017000670200086702000867020008000000002C
:1001800067020008670200086702000867020008AB
:10019000670200086702000867020008670200089B
:1001A00000000000000000006702000800F002F8F4
:1001B00000F03CF80AA090E8000C82448344AAF1C5
:1001C0000107DA4501D100F031F8AFF2090EBAE8C3
:1001D0000F0013F0010F18BFFB1A43F0010318477B
:1001E000A0140000C0140000103A24BF78C878C1E1
:1001F000FAD8520724BF30C830C144BF04680C602D
:10020000704700000023002400250026103A28BF74
:1002100078C1FBD8520728BF30C148BF0B60704778
:100220001FB501F017FA1FBD10B510BD00F0D0F8D2
:100230001146FFF7F5FF01F0FFF900F0EEF803B407
:10024000FFF7F2FF03BC00F0F5F800000948804713
:1002500009480047FEE7FEE7FEE7FEE7FEE7FEE7A8
:10026000FEE7FEE7FEE7FEE704480549054A064BC0
:1002700070470000E9150008AD010008C00000202B
:10028000C0060020C0020020C002002053EA020C79
:1002900000F069802DE9F04B4FF00006002B1FBFE6
:1002A000B3FA83F503FA05F424FA05F65E4012BFAB
:1002B0001643B2FA82F502FA05F4C5F120051EBF15
:1002C00022FA05FC44EA0C04203556EA044C4FEAB5
:1002D000144418BF641C4FF000084FF0000990420E
:1002E00071EB030C39D3002919BFB1FA81F701FA78
:1002F00007F6B0FA80F700FA07F6C7F120071EBF2D
:1003000020FA07FC46EA0C062037B6FBF4FCA7EB04
:100310000507103F07F01F0BCBF120062CFA06F65D
:100320000CFA0BFB44BFB3460026202FA4BF5E4649
:100330004FF0000B5BEA060C08BF4FF0010B19EB06
:100340000B0948EB0608ABFB027C06FB02CC0BFB5F
:1003500003CCC01B71EB0C01C1E70B4602464146C2
:100360004846BDE8F08B13B5084318BF4FF0FF3087
:100370000146AFF30080BDE81C4070474FF000021B
:1003800000B5134694469646203922BFA0E80C508B
:10039000A0E80C50B1F12001BFF4F7AF090728BF66
:1003A000A0E80C5048BF0CC05DF804EB890028BFE2
:1003B00040F8042B08BF704748BF20F8022B11F00B
:1003C000804F18BF00F8012B704770477047704787
:1003D000754600F02BF8AE4605006946534620F0FE
:1003E0000700854618B020B5FFF73EFFBDE8204066
:1003F0004FF000064FF000074FF000084FF0000BE1
:10040000AC46ACE8C009ACE8C009ACE8C009ACE84F
:10041000C00921F007018D46704710B50446AFF3BF
:1004200000802046BDE81040FFF709BF0048704734
:100430001000002001491820ABBEFEE72600020094
:1004400070470000FEE7000040F29400C2F2000096
:1004500000F034B940F29400C2F2000000F02EB96E
:1004600040F29400C2F2000000F028B940F294007B
:10047000C2F2000000F022B970470000EFF31080D4
:1004800072B600BFFEE7000090F82020013A012A72
:1004900008D8006800F114020020136819431160A5
:1004A000704700BF00F1240201204FF4802113683F
:1004B0001943116070470000B0B590F82020013A50
:1004C000012A2FD846F20060C4F20000026842F010
:1004D00001020260026822F47C520260D1F814E04A
:1004E000CC694A6A0368012C43EA022202600EF0DA
:1004F0001F024FF0010303FA02F2C3696FEA020C14
:1005000023EA0203C36113D02CBBC36803EA0C03C4
:10051000C360CB688C8844EA034300EBCE042364B9
:100520000B4611E0416A41F4802141620120B0BDD7
:10053000C3681343C3600B688C8844EA034300EB31
:10054000CE04236401F10C038C681B8843EA044346
:1005500000EBCE04636443688D6943EA0204D1F87A
:1005600010E0096A002D08BF03EA0C0444604369E7
:10057000BEF1000F43EA020408BF03EA0C0401299C
:10058000446102D1C1691143C161016821F00101D7
:1005900001600020B0BD00007047000010B590F869
:1005A0002040013C012C71D8D0F800C0002977D040
:1005B000DCF81040A40777D00CEB011CDCF8B0414C
:1005C0000CF5D87E14F004049460DCF8B04119BF37
:1005D000E4085460640D1460DEF80040002904F063
:1005E0000204D460DCF8B44104F00F041461DCF8B8
:1005F000B441C4F307249461DCF8B4414FEA1444D5
:100600005461DCF8B8211A70026802EB0112D2F8CA
:10061000B8214FEA12225A70026802EB0112D2F896
:10062000B8214FEA12429A70026802EB0112D2F826
:10063000B8214FEA1262DA70026802EB0112D2F8B6
:10064000BC211A71026802EB0112D2F8BC214FEAF8
:1006500012225A71026802EB0112D2F8BC214FEA51
:1006600012429A71026802EB0112D2F8BC214FEAE1
:100670001262DA71006814BF00F1100100F10C0180
:10068000002020220B681A430A6010BD00F12401EB
:1006900001204FF480220B681A430A6010BD00BF8E
:1006A000DCF80C40A40787D100F1240101204FF4AD
:1006B00000120B681A430A6010BD00002DE9F04FCC
:1006C00081B0044600684669D0F804908768D0F885
:1006D0000CB0D0F810A0D0F81880F10704D1002594
:1006E00030071DD424E000BFF90710D00121BA075C
:1006F000816009D4780700F1AF80380700F1B68037
:10070000204600F023FA02E0204600F021FA0025FE
:10071000F80500F18780F80300F1B180300707D5B4
:100720001BF0100004D0206845F400751021C16052
:10073000700708D51BF0080005D020680821C160AB
:10074000204600F0B9F9B00706D52068C0688007D8
:1007500002D0204600F0B2F9700607D51AF010005A
:1007600004D0206845F4806510210161B00608D5E9
:100770001AF0080005D0206808210161204600F029
:10078000B1F9F00606D520680069800702D020463E
:1007900000F0AAF9B00308D519F0100005D02068C0
:1007A00010214160204600F0A1F9F00308D519F0AE
:1007B000080005D0206808214160204600F0D2F9E9
:1007C000300440F19B805FEA497040F1948006F468
:1007D000807008EA102028435FEA8871014648BF0C
:1007E00041F00201B20558BF01465FEA48700D466C
:1007F00048BF45F00405700558BF0D46300540F16F
:100800007A8018F0700000F0768010380009052812
:100810006CD8DFE800F003595D61656945F00805B3
:1008200064E000BF20684FF48071BA0581600BD48A
:10083000780515D438051DD4204600F08BF9F8034F
:100840007FF56CAF1BE000BF204600F085F9F80390
:100850007FF564AF13E000BF4FF4006558E700BFB9
:1008600005F50055F8037FF559AF08E04FF48055C2
:100870004EE700BF05F58045F8037FF54FAF2068D0
:100880004FF48031BA0381600AD4780310D438035E
:1008900014D4204600F062F930073FF541AF47E736
:1008A000204600F05DF930073FF53AAF40E700BF62
:1008B00005F5004530073FF533AF39E705F58035DD
:1008C00030073FF52DAF33E745F010050EE000BFD0
:1008D00045F020050AE000BF45F0400506E000BFF6
:1008E00045F0800502E000BF45F48075206881690D
:1008F00021F07001816120680421416055B1606A76
:1009000040EA05012046616201B0BDE8F04FFFF703
:1009100043BE00BF01B0BDE8F08F0000B0B5C8B164
:10092000044690F8200010B9204600F071F82068C5
:10093000016841F00101016000F0EAF9054600BFDD
:1009400020684168C90707D100F0E2F9401B0B2875
:10095000F6D312E00120B0BD016821F00201016070
:1009600000F0D6F9054600BF2068416889070DD51B
:1009700000F0CEF9401B0B28F6D3606A052140F445
:1009800000306062012084F82010B0BD217E026832
:10099000012922F0800208BF80320260617E026875
:1009A000012922F0400208BF40320260A17E0268A5
:1009B000012922F0200208BF20320260E17E026895
:1009C000012922F0100218BF10320260217F026854
:1009D000012922F0080208BF08320260617F026824
:1009E000012922F0040208BF04320260D4E901C2E6
:1009F000D4E9033561691A432A431143ACF101027A
:100A00001143C16100200121606284F82010B0BD53
:100A100080B586B0016846F20040C4F20000814211
:100A200002D006B080BD00BF002143F63002019124
:100A3000C4F20202136900F5D43043F0007313616D
:100A4000136903F000730193019B0191136843F054
:100A5000080313601268022302F008020192019A4F
:100A6000CDE9023109210322059101A901920492E5
:100A700000F07AF813200021002200F0CDF91320B5
:100A800000F0B6F914200021002200F0C5F914206E
:100A900000F0AEF915200021002200F0BDF915206C
:100AA00000F0A6F916200021002200F0B5F916206A
:100AB00000F09EF906B080BD7047000040F294013E
:100AC000C2F20001884218BF704740F27003C2F2C0
:100AD000000340F2940003F10802C2F2000000217A
:100AE000FFF75CBD704700007047000070470000D2
:100AF000B0B5044690F8200001281DD1022084F8EA
:100B000020002068016821F00101016000F000F977
:100B1000054600BF20684068C00713D000F0F8F811
:100B2000401B0B28F6D3606A40F400306062052059
:100B300084F820000120B0BD606A40F400206062AB
:100B40000120B0BD00206062B0BD00007047000011
:100B500070470000704700007047000070470000B9
:100B600070470000704700002DE9F04F82B000F19F
:100B70003E4242F2004502F1FF77C4F202050A222A
:100B800043F6004E4FEAB726A84208BF0922C4F236
:100B9000010E092E38BF4FEAB72201250026002793
:100BA0004FF00008009208E008F101080437B8F19E
:100BB000100F06F1020600F0A7800C6805FA08F98C
:100BC00014EA090FF0D0D1F804B003220BF0030CA3
:100BD000ACF10104B240012C6FEA020A10D882681D
:100BE000CC6802EA0A02B440224382604268CBF336
:100BF000001422EA090204FA08F42243426005E0E4
:100C0000BCF1030F02D14FF0030C20E0C2688C68E6
:100C100002EA0A02B4402243BCF1020FC26016D1BC
:100C20006FF0030202EA58020244D2F820C007F033
:100C30001C050F230C69AB402CEA030304FA05F5ED
:100C40002B431362D1F804B001250BF0030C0268AA
:100C50000CFA06F302EA0A021A431BF4403F026050
:100C6000A2D0002243F644030192C4F202031A68A0
:100C70004FF6084C42F480421A601A68CFF6FF7CA7
:100C800002F480420192019A28F00302724452F861
:100C90000C3007F00C050F24AC40A343009C04FA71
:100CA00005F52B4342F80C30DEF808204B6842EA89
:100CB000090543F60C4CDC0258BF22EA0905CEF8C0
:100CC0000850C4F2010CDCF800209C0242EA09053D
:100CD00058BF22EA0905CCF80050DEF804209C0336
:100CE00042EA090558BF22EA0905CEF80450DEF8A9
:100CF0000020DB0342EA090558BF22EA0905CEF8C5
:100D00000050012550E700BF02B0BDE8F08F0000A1
:100D100040F2BC00C2F200000068704740F20000E0
:100D200040F2BC01C2F20000C2F2000100780A6881
:100D3000104408607047000080B543F60040C4F2DC
:100D40000200016841F400710160016841F48061B2
:100D50000160016841F480710160032000F088F8AF
:100D60000F2000F005F800F027F8002080BD0000FB
:100D700070B540F20006C2F2000640F20801327877
:100D8000C2F200014FF47A730968B3FBF2F2044631
:100D9000B1FBF2F1084600F059FB0F2C4FF00105B2
:100DA00008D838B94FF0FF3021460022002500F066
:100DB00033F87460284670BD82B0002043F64001CD
:100DC0000190C4F202014A6842F480424A604A68D3
:100DD00002F480420192019A0090086840F080502D
:100DE0000860086800F080500090009802B07047DA
:100DF000002848BF7047C1B200F01F00012202FA6C
:100E000000F04EF20012CEF2000242EAD10121F0CF
:100E1000030108607047000010B54EF60C5CCEF27E
:100E2000000CDCF80030C3F3022E8EF00704042C13
:100E300028BF0424BEF103034FF0FF3E0EFA04F472
:100E400038BF0023A14399400EFA03F39A4311439C
:100E500000F00F0200F160430901043A03F5644316
:100E60006244002848BF02F10C03197010BD000055
:100E70004EF60C51CEF200010A684FF6FF031A40FD
:100E800060F30A2242F0806040F0FD700860704715
:100E900070B582B00020019043F64000C4F2020019
:100EA0000168402641F0805101600068C4F20E26BE
:100EB00000F080500190019847F204050120C4F22F
:100EC00000053060FFF724FF044600BF2868C00318
:100ED00006D4FFF71DFF001BB0F57A7FF6D90EE0B0
:100EE00001207060FFF714FF044600BF28688003EC
:100EF00008D4FFF70DFF001BB0F57A7FF6D9032069
:100F000002B070BD002002B070BD00002DE9F041BC
:100F1000002800F08B8043F60808C4F2020804465B
:100F2000D8F8F8030D4600F00F00884207D288F881
:100F3000F853D8F8F80300F00F00A84276D12068E3
:100F4000810717D5410705D5D8F8001041F4E051C5
:100F5000C8F80010010705D5D8F8001041F4604129
:100F6000C8F80010D8F80010A26821F0F001114371
:100F7000C8F80010C0073FD1D8F8F80300F00F0000
:100F8000A84207D988F8F853D8F8F80300F00F0002
:100F9000A8424BD12068410707D5D8F80010E26875
:100FA00021F4E0511143C8F80010000708D5D8F823
:100FB0000000216920F4604040EAC100C8F8000048
:100FC00000F054F8D8F8001041F26E62C1F303113A
:100FD000C0F60002515C40F2080220FA01F140F232
:100FE0000400C2F200000068C2F200021160FFF7C4
:100FF000BFFE0020BDE8F0816068811E022907D293
:1010000058F8081C89015CBF0120BDE8F08111E09F
:10101000012807D158F8081C89035CBF0120BDE8EE
:10102000F08107E058F8081C890703D40120BDE8C7
:10103000F08100BFD8F8001021F003010843C8F880
:101040000000FFF765FE064641F28837D8F8000039
:10105000616800F00C00B0EB810F8DD0FFF758FEF7
:10106000801BB842F2D90320BDE8F08110B543F6E9
:101070000404C4F20204606800F00C0008280BD0DD
:10108000042819BF42F20040C0F2F40041F60030DB
:10109000C0F2B70010BD00BF206821682368490274
:1010A00041F60031C0F2B70100F03F02C3F38810EF
:1010B0005CBF42F20041C0F2F401A1FB0001002339
:1010C000FFF7E4F821680222C1F3014102EB41017C
:1010D000B0FBF1F010BD00002DE9F04182B0002816
:1010E00068D00446007843F60006C007C4F2020642
:1010F0000BD0B06800F00C00042840F09F803068EE
:10110000800302D56068002854D0207880071AD563
:10111000B06810F00C0F09D0B06800F00C0008287F
:1011200040F0A6807068400200F1A280306880071D
:1011300002D5E06801283DD13068216920F0F8002F
:1011400040EAC10030602078000737D4207840079B
:101150004CD4A56955B3B06800F00C00082840F0E5
:10116000BB80012D26D07068E16900F480028A42BC
:1011700020D1216A00F03F028A421BD147F6C0719C
:10118000626A0140B1EB821F14D1A16A4FF6FF736E
:10119000C903994300F44032A1F580318A4209D154
:1011A000E16A00F07060B0EB016F03D1002002B083
:1011B000BDE8F081012002B0BDE8F081606900283F
:1011C00040F20000C4F2472076D00121C0F8801E12
:1011D000FFF79EFD054600BF706F8007B6D4FFF78E
:1011E00097FD401B0228F7D9DDE000BF306C10F0FE
:1011F00080580AD100200190306C40F0805030645B
:10120000306C00F080500190019847F20007C4F262
:1012100000073868C00541D4386840F480703860F1
:10122000FFF776FD054600BF3868C00536D4FFF7E6
:101230006FFD401B0228F7D9B5E000BFB06800F091
:101240000C00082803D1706840023FF558AF606871
:10125000B0F5803F07D0B0F5A02F40F08D8030680A
:1012600040F480203060306840F4803030608DE0A1
:10127000E068002852D00020C4F24720012101601C
:10128000FFF746FD054600BF306880073FF554AFC5
:10129000FFF73EFD401B0228F6D984E0A068012834
:1012A00005D005284ED1306F40F004003067306F14
:1012B00040F0010030674FE00021C0F8801EFFF7CA
:1012C00027FD0546706F80077FF540AFFFF720FDD3
:1012D000401B0228F6D966E00027C4F24727002009
:1012E0003866FFF715FD022D05460BD130688001E9
:1012F0005ED5FFF70DFD401B02284FF00300F5D926
:1013000055E700BF306880017FF550AFFFF700FD63
:10131000401B02284FF00300F4D948E70020C4F234
:10132000472000210160FFF7F3FC05463068800785
:101330007FF509AFFFF7ECFC401B02284FF00300DC
:10134000F4D934E7316F002821F001013167316FA2
:1013500021F0040131674DD0FFF7DAFC054641F278
:10136000883700BF306F800756D4FFF7D1FC401B91
:10137000B842F7D917E000BF3168002821F4803166
:101380003160316821F4802131604FD0FFF7C0FC1B
:10139000054600BF306880033FF5B7AEFFF7B8FCE5
:1013A000401B6428F6D9032002B0BDE8F08100BFDD
:1013B00004F11C052FCD084340EA8210D9034FF6F3
:1013C000FF729143A1F5803140EA056008437060E7
:1013D00001203866FFF79CFC044600BF306880019E
:1013E0003FF5E4AEFFF794FC001B02284FF003002A
:1013F000F4D9DCE6FFF78CFC054641F2883700BFE4
:10140000306F800708D5FFF783FC401BB8424FF0D0
:101410000300F5D9CBE600BFB8F1000F7FF499AE19
:10142000306C20F08050306493E600BFFFF770FC12
:10143000054600BF306880037FF567AEFFF768FCA4
:10144000401B64284FF00300F4D9B0E6411E002091
:10145000B0EB116F1CBF012070474EF21002CEF2AC
:10146000000251604EF62351CEF20001F0230B70C2
:101470000721906011607047FEE7000080B540F2E0
:10148000940046F20041C2F20000C4F200010322BF
:10149000002380E80E0000F10C014FF4302C4FF4D3
:1014A000801E81E808504FF480710183C0F81A3023
:1014B000FFF734FA002808BF80BDBDE88040FEF782
:1014C000DDBF000083B0002043F630010290C4F27B
:1014D00002010A6842F001020A600A6802F0010291
:1014E0000292029A01900A6842F008020A600A68B1
:1014F00002F008020192019A0090086840F0800012
:101500000860086800F080000090009803B0704701
:10151000FEE70000FEE70000704700007047000093
:10152000FFF7FCBB80B592B0002043F64001CDE947
:101530000A00CDE908000590CDE90300CDE90100DE
:101540000090C4F202010A6842F080520A60096801
:1015500001F0805100910099009047F20000C4F220
:101560000000016841F44041016000684FF48001CF
:1015700000F4404000900098012006904FF4803025
:101580000D910621079002200E91B4210C90CDE917
:101590000F100420119006A8FFF79EFD20B1EFF375
:1015A000108072B6FEE700BFFFF772FC20B1EFF3C8
:1015B000108072B6FEE700BF0F200190022002905B
:1015C000002003904FF4A05004904FF480500590F9
:1015D00001A80521FFF79AFC20B1EFF3108072B645
:1015E000FEE700BF12B080BD4EF68850CEF200007C
:1015F000016841F47001016070470000FEE70000DF
:10160000B0B58AB06C4620462821FEF7B7FE40F2FE
:1016100094050120C2F20005CDE9070028462146C5
:10162000FEF74AFF2846FFF763FA28460221FEF735
:101630002BFF0AB0B0BD0000FFF77EFBFFF772FF83
:10164000FFF740FFFFF71AFF00F002F8FEE7000087
:10165000FFF7D6BFF1EE100A4FF6FF71C0F2C031AE
:1016600020EA010040F04070E1EE100A70470000EF
:101670000000000000000102030406070809000042
:10168000A01600080000002010000000E80100087B
:10169000B016000810000020B00600000402000888
:1016A00001000000100000000024F4000000000011
:04000005080001AD41
:00000001FF
